{
  "contractName": "Rastreamento",
  "abi": [
    {
      "constant": true,
      "inputs": [
        {
          "name": "",
          "type": "uint256"
        }
      ],
      "name": "pacotesIds",
      "outputs": [
        {
          "name": "",
          "type": "uint256"
        }
      ],
      "payable": false,
      "stateMutability": "view",
      "type": "function"
    },
    {
      "anonymous": false,
      "inputs": [
        {
          "indexed": false,
          "name": "_pacoteId",
          "type": "uint256"
        }
      ],
      "name": "pacoteRegistered",
      "type": "event"
    },
    {
      "anonymous": false,
      "inputs": [
        {
          "indexed": false,
          "name": "_pacoteId",
          "type": "uint256"
        },
        {
          "indexed": false,
          "name": "_message",
          "type": "string"
        }
      ],
      "name": "pacoteUpdated",
      "type": "event"
    },
    {
      "constant": false,
      "inputs": [
        {
          "name": "_codigo",
          "type": "uint256"
        },
        {
          "name": "_origem",
          "type": "string"
        },
        {
          "name": "_destino",
          "type": "string"
        },
        {
          "name": "_atual",
          "type": "string"
        },
        {
          "name": "_rastro",
          "type": "string[]"
        }
      ],
      "name": "addPacote",
      "outputs": [],
      "payable": false,
      "stateMutability": "nonpayable",
      "type": "function"
    },
    {
      "constant": false,
      "inputs": [
        {
          "name": "_pacoteId",
          "type": "uint256"
        },
        {
          "name": "_novoRastro",
          "type": "string"
        }
      ],
      "name": "updatePacote",
      "outputs": [],
      "payable": false,
      "stateMutability": "nonpayable",
      "type": "function"
    },
    {
      "constant": true,
      "inputs": [
        {
          "name": "_id",
          "type": "uint256"
        }
      ],
      "name": "pacoteInfo",
      "outputs": [
        {
          "name": "",
          "type": "uint256"
        },
        {
          "name": "",
          "type": "string"
        },
        {
          "name": "",
          "type": "string"
        },
        {
          "name": "",
          "type": "string"
        },
        {
          "name": "",
          "type": "string[]"
        }
      ],
      "payable": false,
      "stateMutability": "view",
      "type": "function"
    },
    {
      "constant": true,
      "inputs": [],
      "name": "getPacotes",
      "outputs": [
        {
          "name": "",
          "type": "uint256[]"
        },
        {
          "name": "",
          "type": "string[]"
        },
        {
          "name": "",
          "type": "string[]"
        },
        {
          "name": "",
          "type": "string[]"
        }
      ],
      "payable": false,
      "stateMutability": "view",
      "type": "function"
    }
  ],
  "bytecode": "0x6080604052600060025534801561001557600080fd5b50611529806100256000396000f3fe60806040526004361061006d576000357c0100000000000000000000000000000000000000000000000000000000900463ffffffff16806311fb4da214610072578063225d76711461009b5780632543717c146100c457806330145ce714610101578063696204691461012f575b600080fd5b34801561007e57600080fd5b5061009960048036036100949190810190610f65565b610170565b005b3480156100a757600080fd5b506100c260048036036100bd9190810190610fb9565b61021c565b005b3480156100d057600080fd5b506100eb60048036036100e69190810190610f3c565b610372565b6040516100f891906112c3565b60405180910390f35b34801561010d57600080fd5b50610116610395565b6040516101269493929190611242565b60405180910390f35b34801561013b57600080fd5b5061015660048036036101519190810190610f3c565b610854565b6040516101679594939291906112de565b60405180910390f35b60008060008481526020019081526020016000209050806004018290806001815401808255809150509060018203906000526020600020016000909192909190915090805190602001906101c5929190610bdd565b5050818160030190805190602001906101df929190610bdd565b507f77926526c31081874cb59fd562bbacf5dca05f8479b46d017fbe92c5233d7fff8360405161020f919061134d565b60405180910390a1505050565b8181600081518110151561022c57fe5b9060200190602002018190525060a06040519081016040528086815260200185815260200184815260200183815260200182815250600080600254815260200190815260200160002060008201518160000155602082015181600101908051906020019061029b929190610c5d565b5060408201518160020190805190602001906102b8929190610c5d565b5060608201518160030190805190602001906102d5929190610c5d565b5060808201518160040190805190602001906102f2929190610cdd565b50905050600160025490806001815401808255809150509060018203906000526020600020016000909192909190915055507fa877e8f3ba4168deca238c1997d2c516a3d1b444993318418fe7645c929475ee600260008154809291906001019190505560405161036391906112c3565b60405180910390a15050505050565b60018181548110151561038157fe5b906000526020600020016000915090505481565b606080606080606060018054806020026020016040519081016040528092919081815260200182805480156103e957602002820191906000526020600020905b8154815260200190600101908083116103d5575b505050505090506060815160405190808252806020026020018201604052801561042757816020015b60608152602001906001900390816104125790505b5090506060825160405190808252806020026020018201604052801561046157816020015b606081526020019060019003908161044c5790505b5090506060835160405190808252806020026020018201604052801561049b57816020015b60608152602001906001900390816104865790505b50905060008090505b845181101561083d576104b5610d3d565b60008083815260200190815260200160002060a0604051908101604052908160008201548152602001600182018054600181600116156101000203166002900480601f0160208091040260200160405190810160405280929190818152602001828054600181600116156101000203166002900480156105765780601f1061054b57610100808354040283529160200191610576565b820191906000526020600020905b81548152906001019060200180831161055957829003601f168201915b50505050508152602001600282018054600181600116156101000203166002900480601f0160208091040260200160405190810160405280929190818152602001828054600181600116156101000203166002900480156106185780601f106105ed57610100808354040283529160200191610618565b820191906000526020600020905b8154815290600101906020018083116105fb57829003601f168201915b50505050508152602001600382018054600181600116156101000203166002900480601f0160208091040260200160405190810160405280929190818152602001828054600181600116156101000203166002900480156106ba5780601f1061068f576101008083540402835291602001916106ba565b820191906000526020600020905b81548152906001019060200180831161069d57829003601f168201915b5050505050815260200160048201805480602002602001604051908101604052809291908181526020016000905b828210156107a4578382906000526020600020018054600181600116156101000203166002900480601f0160208091040260200160405190810160405280929190818152602001828054600181600116156101000203166002900480156107905780601f1061076557610100808354040283529160200191610790565b820191906000526020600020905b81548152906001019060200180831161077357829003601f168201915b5050505050815260200190600101906106e8565b50505050815250509050806000015181602001518260400151836060015189868151811015156107d057fe5b90602001906020020189878151811015156107e757fe5b90602001906020020189888151811015156107fe57fe5b906020019060200201898981518110151561081557fe5b90602001906020020184905284905284905284815250505050505080806001019150506104a4565b508383838397509750975097505050505090919293565b600060608060608060025486111515156108a3576040517f08c379a000000000000000000000000000000000000000000000000000000000815260040161089a906112a3565b60405180910390fd5b6108ab610d3d565b60008088815260200190815260200160002060a0604051908101604052908160008201548152602001600182018054600181600116156101000203166002900480601f01602080910402602001604051908101604052809291908181526020018280546001816001161561010002031660029004801561096c5780601f106109415761010080835404028352916020019161096c565b820191906000526020600020905b81548152906001019060200180831161094f57829003601f168201915b50505050508152602001600282018054600181600116156101000203166002900480601f016020809104026020016040519081016040528092919081815260200182805460018160011615610100020316600290048015610a0e5780601f106109e357610100808354040283529160200191610a0e565b820191906000526020600020905b8154815290600101906020018083116109f157829003601f168201915b50505050508152602001600382018054600181600116156101000203166002900480601f016020809104026020016040519081016040528092919081815260200182805460018160011615610100020316600290048015610ab05780601f10610a8557610100808354040283529160200191610ab0565b820191906000526020600020905b815481529060010190602001808311610a9357829003601f168201915b5050505050815260200160048201805480602002602001604051908101604052809291908181526020016000905b82821015610b9a578382906000526020600020018054600181600116156101000203166002900480601f016020809104026020016040519081016040528092919081815260200182805460018160011615610100020316600290048015610b865780601f10610b5b57610100808354040283529160200191610b86565b820191906000526020600020905b815481529060010190602001808311610b6957829003601f168201915b505050505081526020019060010190610ade565b5050505081525050905080600001518160200151826040015183606001518460800151839350829250819150809050955095509550955095505091939590929450565b828054600181600116156101000203166002900490600052602060002090601f016020900481019282601f10610c1e57805160ff1916838001178555610c4c565b82800160010185558215610c4c579182015b82811115610c4b578251825591602001919060010190610c30565b5b509050610c599190610d6d565b5090565b828054600181600116156101000203166002900490600052602060002090601f016020900481019282601f10610c9e57805160ff1916838001178555610ccc565b82800160010185558215610ccc579182015b82811115610ccb578251825591602001919060010190610cb0565b5b509050610cd99190610d6d565b5090565b828054828255906000526020600020908101928215610d2c579160200282015b82811115610d2b578251829080519060200190610d1b929190610c5d565b5091602001919060010190610cfd565b5b509050610d399190610d92565b5090565b60a06040519081016040528060008152602001606081526020016060815260200160608152602001606081525090565b610d8f91905b80821115610d8b576000816000905550600101610d73565b5090565b90565b610dbb91905b80821115610db75760008181610dae9190610dbe565b50600101610d98565b5090565b90565b50805460018160011615610100020316600290046000825580601f10610de45750610e03565b601f016020900490600052602060002090810190610e029190610d6d565b5b50565b600082601f8301121515610e1957600080fd5b8135610e2c610e27826113a8565b61137b565b9150818183526020840193506020810190508360005b83811015610e725781358601610e588882610e7c565b845260208401935060208301925050600181019050610e42565b5050505092915050565b600082601f8301121515610e8f57600080fd5b8135610ea2610e9d826113d0565b61137b565b91508082526020830160208301858383011115610ebe57600080fd5b610ec983828461149c565b50505092915050565b600082601f8301121515610ee557600080fd5b8135610ef8610ef3826113fc565b61137b565b91508082526020830160208301858383011115610f1457600080fd5b610f1f83828461149c565b50505092915050565b6000610f348235611492565b905092915050565b600060208284031215610f4e57600080fd5b6000610f5c84828501610f28565b91505092915050565b60008060408385031215610f7857600080fd5b6000610f8685828601610f28565b925050602083013567ffffffffffffffff811115610fa357600080fd5b610faf85828601610ed2565b9150509250929050565b600080600080600060a08688031215610fd157600080fd5b6000610fdf88828901610f28565b955050602086013567ffffffffffffffff811115610ffc57600080fd5b61100888828901610ed2565b945050604086013567ffffffffffffffff81111561102557600080fd5b61103188828901610ed2565b935050606086013567ffffffffffffffff81111561104e57600080fd5b61105a88828901610ed2565b925050608086013567ffffffffffffffff81111561107757600080fd5b61108388828901610e06565b9150509295509295909350565b600061109b82611442565b808452602084019350836020820285016110b485611428565b60005b848110156110ed5783830388526110cf83835161118f565b92506110da8261146e565b91506020880197506001810190506110b7565b508196508694505050505092915050565b60006111098261144d565b80845260208401935061111b83611435565b60005b8281101561114d57611131868351611233565b61113a8261147b565b915060208601955060018101905061111e565b50849250505092915050565b600061116482611463565b8084526111788160208601602086016114ab565b611181816114de565b602085010191505092915050565b600061119a82611458565b8084526111ae8160208601602086016114ab565b6111b7816114de565b602085010191505092915050565b6000601682527f5061636b61676520646f6573206e6f74206578697374000000000000000000006020830152604082019050919050565b6000601c82527f52617374726f20646f207061636f746520617475616c697a61646f21000000006020830152604082019050919050565b61123c81611488565b82525050565b6000608082019050818103600083015261125c81876110fe565b905081810360208301526112708186611090565b905081810360408301526112848185611090565b905081810360608301526112988184611090565b905095945050505050565b600060208201905081810360008301526112bc816111c5565b9050919050565b60006020820190506112d86000830184611233565b92915050565b600060a0820190506112f36000830188611233565b81810360208301526113058187611159565b905081810360408301526113198186611159565b9050818103606083015261132d8185611159565b905081810360808301526113418184611090565b90509695505050505050565b60006040820190506113626000830184611233565b8181036020830152611373816111fc565b905092915050565b6000604051905081810181811067ffffffffffffffff8211171561139e57600080fd5b8060405250919050565b600067ffffffffffffffff8211156113bf57600080fd5b602082029050602081019050919050565b600067ffffffffffffffff8211156113e757600080fd5b601f19601f8301169050602081019050919050565b600067ffffffffffffffff82111561141357600080fd5b601f19601f8301169050602081019050919050565b6000602082019050919050565b6000602082019050919050565b600081519050919050565b600081519050919050565b600081519050919050565b600081519050919050565b6000602082019050919050565b6000602082019050919050565b6000819050919050565b6000819050919050565b82818337600083830152505050565b60005b838110156114c95780820151818401526020810190506114ae565b838111156114d8576000848401525b50505050565b6000601f19601f830116905091905056fea265627a7a7230582011091706477e89a2f6faaa68260dc0aec9cac5405862c1464ca13f278e5a2b986c6578706572696d656e74616cf50037",
  "source": "pragma solidity ^0.5.0;\npragma experimental ABIEncoderV2;\n\ncontract Rastreamento {\n\n  event pacoteRegistered(uint _pacoteId);\n\n  event pacoteUpdated(uint _pacoteId, string _message);\n\n  struct Pacote {\n      uint id;\n      string enderecoOrigem;\n      string enderecoDestino;\n      string enderecoAtual;\n      string[] rastro;\n  }\n\n  mapping (uint => Pacote) pacotes;\n  uint[] public pacotesIds;\n\n  uint private pacoteId = 0;\n\n\n  function addPacote(uint _codigo, string memory _origem, string memory _destino, string memory _atual, string[] memory _rastro) public {\n      _rastro[0] = _atual;\n      pacotes[pacoteId] = Pacote(_codigo, _origem, _destino, _atual, _rastro);\n      pacotesIds.push(pacoteId);\n      emit pacoteRegistered(pacoteId++);\n  }\n\n  function updatePacote(uint _pacoteId, string memory _novoRastro) public {\n      Pacote storage pac = pacotes[_pacoteId];\n\n      //uint rastroId = 1;\n      pac.rastro.push(_novoRastro);\n      pac.enderecoAtual = _novoRastro;\n\n      emit pacoteUpdated(_pacoteId, \"Rastro do pacote atualizado!\");\n  }\n\n  function pacoteInfo(uint _id) public view\n    returns(\n        uint,\n        string memory,\n        string memory,\n        string memory,\n        string[] memory\n    ) {\n        require(_id <= pacoteId, \"Package does not exist\");\n\n        Pacote memory pacote = pacotes[_id];\n\n        return (\n            pacote.id,\n            pacote.enderecoOrigem,\n            pacote.enderecoDestino,\n            pacote.enderecoAtual,\n            pacote.rastro\n        );\n  }\n\n  function getPacotes() public view\n      returns(\n          uint[] memory,\n          string[] memory,\n          string[] memory,\n          string[] memory\n      ) {\n          uint[] memory codigos = pacotesIds;\n          string[] memory origens = new string[](codigos.length);\n          string[] memory destinos = new string[](codigos.length);\n          string[] memory atuais = new string[](codigos.length);\n\n          for (uint i = 0; i < codigos.length; i++) {\n            Pacote memory pacote = pacotes[i];\n            (codigos[i], origens[i], destinos[i], atuais[i]) = (pacote.id, pacote.enderecoOrigem, pacote.enderecoDestino, pacote.enderecoAtual);\n          }\n\n          return (\n              codigos,\n              origens,\n              destinos,\n              atuais\n          );\n        }\n}\n",
  "sourcePath": "/home/fernando/desenvolvimento/IESB/smart-contracts/iesb-smart-contracts/dapp/contracts/Rastreamento.sol",
  "compiler": {
    "name": "solc",
    "version": "0.5.0+commit.1d4f565a.Emscripten.clang"
  },
  "schemaVersion": "3.0.16",
  "updatedAt": "2019-12-13T06:06:10.886Z",
  "devdoc": {
    "methods": {}
  },
  "userdoc": {
    "methods": {}
  }
}